{
  "contractName": "Coinflip",
  "abi": [
    {
      "inputs": [],
      "payable": false,
      "stateMutability": "nonpayable",
      "type": "constructor"
    },
    {
      "anonymous": false,
      "inputs": [
        {
          "indexed": false,
          "internalType": "address",
          "name": "_user",
          "type": "address"
        },
        {
          "indexed": false,
          "internalType": "uint256",
          "name": "bet",
          "type": "uint256"
        },
        {
          "indexed": false,
          "internalType": "bool",
          "name": "won",
          "type": "bool"
        }
      ],
      "name": "betMade",
      "type": "event"
    },
    {
      "anonymous": false,
      "inputs": [
        {
          "indexed": false,
          "internalType": "address",
          "name": "owner",
          "type": "address"
        },
        {
          "indexed": false,
          "internalType": "uint256",
          "name": "amount",
          "type": "uint256"
        }
      ],
      "name": "contractFunded",
      "type": "event"
    },
    {
      "anonymous": false,
      "inputs": [
        {
          "indexed": false,
          "internalType": "address",
          "name": "_drainer",
          "type": "address"
        },
        {
          "indexed": false,
          "internalType": "bool",
          "name": "passed",
          "type": "bool"
        }
      ],
      "name": "drained",
      "type": "event"
    },
    {
      "constant": true,
      "inputs": [],
      "name": "_amountBet",
      "outputs": [
        {
          "internalType": "uint256",
          "name": "",
          "type": "uint256"
        }
      ],
      "payable": false,
      "stateMutability": "view",
      "type": "function"
    },
    {
      "constant": true,
      "inputs": [],
      "name": "_contractBalance",
      "outputs": [
        {
          "internalType": "uint256",
          "name": "",
          "type": "uint256"
        }
      ],
      "payable": false,
      "stateMutability": "view",
      "type": "function"
    },
    {
      "constant": true,
      "inputs": [],
      "name": "_owner",
      "outputs": [
        {
          "internalType": "address payable",
          "name": "",
          "type": "address"
        }
      ],
      "payable": false,
      "stateMutability": "view",
      "type": "function"
    },
    {
      "constant": false,
      "inputs": [
        {
          "internalType": "uint256",
          "name": "headTails",
          "type": "uint256"
        }
      ],
      "name": "createBet",
      "outputs": [],
      "payable": true,
      "stateMutability": "payable",
      "type": "function"
    },
    {
      "constant": true,
      "inputs": [],
      "name": "getBalance",
      "outputs": [
        {
          "internalType": "uint256",
          "name": "",
          "type": "uint256"
        }
      ],
      "payable": false,
      "stateMutability": "view",
      "type": "function"
    },
    {
      "constant": false,
      "inputs": [],
      "name": "deposit",
      "outputs": [],
      "payable": true,
      "stateMutability": "payable",
      "type": "function"
    },
    {
      "constant": false,
      "inputs": [],
      "name": "withdrawAll",
      "outputs": [
        {
          "internalType": "uint256",
          "name": "",
          "type": "uint256"
        }
      ],
      "payable": false,
      "stateMutability": "nonpayable",
      "type": "function"
    }
  ],
  "bytecode": "0x608060405234801561001057600080fd5b50336000806101000a81548173ffffffffffffffffffffffffffffffffffffffff021916908373ffffffffffffffffffffffffffffffffffffffff1602179055506107c1806100606000396000f3fe6080604052600436106100705760003560e01c80638fcd68871161004e5780638fcd6887146100f6578063ac793a6014610121578063b2bdfa7b1461014f578063d0e30db0146101a657610070565b806312065fe0146100755780631ded4c77146100a0578063853828b6146100cb575b600080fd5b34801561008157600080fd5b5061008a6101b0565b6040518082815260200191505060405180910390f35b3480156100ac57600080fd5b506100b56101cf565b6040518082815260200191505060405180910390f35b3480156100d757600080fd5b506100e06101d5565b6040518082815260200191505060405180910390f35b34801561010257600080fd5b5061010b6103fd565b6040518082815260200191505060405180910390f35b61014d6004803603602081101561013757600080fd5b8101908080359060200190929190505050610403565b005b34801561015b57600080fd5b50610164610648565b604051808273ffffffffffffffffffffffffffffffffffffffff1673ffffffffffffffffffffffffffffffffffffffff16815260200191505060405180910390f35b6101ae61066d565b005b60003073ffffffffffffffffffffffffffffffffffffffff1631905090565b60015481565b60008060009054906101000a900473ffffffffffffffffffffffffffffffffffffffff1673ffffffffffffffffffffffffffffffffffffffff163373ffffffffffffffffffffffffffffffffffffffff1614610299576040517f08c379a00000000000000000000000000000000000000000000000000000000081526004018080602001828103825260168152602001807f4f6e6c79204f776e65722063616e20646f20746869730000000000000000000081525060200191505060405180910390fd5b60003073ffffffffffffffffffffffffffffffffffffffff16319050600080905060006001819055503373ffffffffffffffffffffffffffffffffffffffff166108fc839081150290604051600060405180830381858888f193505050501561037957600190507f721245c6177f69e69e448f5fc23ab203942631b14fcc155c31b368fb5b9db2063382604051808373ffffffffffffffffffffffffffffffffffffffff1673ffffffffffffffffffffffffffffffffffffffff168152602001821515151581526020019250505060405180910390a181925050506103fa565b600090507f721245c6177f69e69e448f5fc23ab203942631b14fcc155c31b368fb5b9db2063382604051808373ffffffffffffffffffffffffffffffffffffffff1673ffffffffffffffffffffffffffffffffffffffff168152602001821515151581526020019250505060405180910390a1816001819055506000925050505b90565b60025481565b67016345785d8a000080341015610482576040517f08c379a000000000000000000000000000000000000000000000000000000000815260040180806020018281038252601f8152602001807f496e73756666696369656e742062616c616e63652e20426574204d6f7265210081525060200191505060405180910390fd5b3073ffffffffffffffffffffffffffffffffffffffff16313411156104f2576040517f08c379a00000000000000000000000000000000000000000000000000000000081526004018080602001828103825260248152602001806107696024913960400191505060405180910390fd5b3460028190555060006002428161050557fe5b0690506000809050818414156105a957600190506002546001600082825401925050819055507fc474812ed82f72fba6666ee35486ac2679f87f29366d404f4a4155f04121e0c13360025483604051808473ffffffffffffffffffffffffffffffffffffffff1673ffffffffffffffffffffffffffffffffffffffff16815260200183815260200182151515158152602001935050505060405180910390a1610642565b8184141561064157600090506002546001600082825403925050819055507fc474812ed82f72fba6666ee35486ac2679f87f29366d404f4a4155f04121e0c13360025483604051808473ffffffffffffffffffffffffffffffffffffffff1673ffffffffffffffffffffffffffffffffffffffff16815260200183815260200182151515158152602001935050505060405180910390a15b5b50505050565b6000809054906101000a900473ffffffffffffffffffffffffffffffffffffffff1681565b6706f05b59d3b200003410156106eb576040517f08c379a000000000000000000000000000000000000000000000000000000000815260040180806020018281038252601c8152602001807f4d696e696d756d206465706f73697420697320302e352045746865720000000081525060200191505060405180910390fd5b346001600082825401925050819055507fff043843182fec3fbcbc695545b7652d340a2cf0919615adb04d98a00e7de8e23334604051808373ffffffffffffffffffffffffffffffffffffffff1673ffffffffffffffffffffffffffffffffffffffff1681526020018281526020019250505060405180910390a156fe4d6178696d756d206265742065786365656465642062616c616e63652e204368696c6c2ea265627a7a723158201f6cafbd716183fcb1b9aae72d061ce120fe2d161446e6c27f8b9d375efbcd9764736f6c634300050c0032",
  "source": "pragma solidity 0.5.12;\n\ncontract Coinflip {\n  address payable public _owner;\n  uint public _contractBalance;\n  uint public _amountBet;\n\n  event contractFunded(address owner, uint amount);\n  event betMade(address _user, uint bet, bool won);\n  event drained(address _drainer, bool passed);\n\n  constructor() public {\n    _owner = msg.sender;\n    _contractBalance == (address(this).balance);\n  }\n\n  modifier onlyOwner() {\n    require(msg.sender == _owner, \"Only Owner can do this\");\n    _;\n  }\n\n  modifier minimum(uint cost) {\n    require(msg.value >= cost, \"Insufficient balance. Bet More!\");\n    _;\n  }\n\n  function createBet(uint headTails) public payable minimum(0.1 ether) {\n    require(msg.value <= address(this).balance, \"Maximum bet exceeded balance. Chill.\");\n    _amountBet = msg.value;\n    uint result = (now % 2);\n    bool wonResult = false;\n\n    // win bet, get double the amount\n    if(headTails == result ){\n      wonResult = true;\n      _contractBalance += _amountBet;\n      emit betMade(msg.sender, _amountBet, wonResult);\n    }\n    // lose, reduce balance by _amountBet\n    else if (headTails == result ) {\n      wonResult = false;\n      _contractBalance -= _amountBet;\n      emit betMade(msg.sender, _amountBet, wonResult);\n    }\n  }\n\n  /* Get Contract Balance */\n  function getBalance() public view returns (uint256) {\n    return (address(this).balance);\n  }\n\n  /* Add to Contract Balance */\n  // function() external payable {\n  function deposit() public payable {\n    require(msg.value >= 0.5 ether, \"Minimum deposit is 0.5 Ether\");\n    _contractBalance += msg.value;\n    emit contractFunded(msg.sender, msg.value);\n  }\n\n  /* Owner can withdraw all balance */\n  function withdrawAll() public onlyOwner returns (uint) {\n    uint toTx = (address(this).balance);\n    bool drainResult = false;\n\n    /* Set balance to 0 */\n    _contractBalance = 0;\n    if(msg.sender.send(toTx)) {\n      drainResult = true;\n      emit drained(msg.sender, drainResult);\n      return toTx;\n    } else {\n      drainResult = false;\n      emit drained(msg.sender, drainResult);\n      /* Set balance back to toTx */\n      _contractBalance = toTx;\n      return 0;\n    }\n  }\n}\n",
  "sourcePath": "/home/rivermoon/Desktop/solidity-advanced/dapp-dice-game/contracts/Coinflip.sol",
  "compiler": {
    "name": "solc",
    "version": "0.5.12+commit.7709ece9.Emscripten.clang"
  },
  "schemaVersion": "3.0.23",
  "updatedAt": "2020-11-11T05:47:03.283Z",
  "networkType": "ethereum",
  "devdoc": {
    "methods": {}
  },
  "userdoc": {
    "methods": {}
  }
}