{
  "contractName": "Coinflip",
  "abi": [
    {
      "inputs": [],
      "payable": true,
      "stateMutability": "payable",
      "type": "constructor"
    },
    {
      "anonymous": false,
      "inputs": [
        {
          "indexed": false,
          "internalType": "bool",
          "name": "wL",
          "type": "bool"
        }
      ],
      "name": "winResult",
      "type": "event"
    },
    {
      "constant": true,
      "inputs": [],
      "name": "_amountBet",
      "outputs": [
        {
          "internalType": "uint256",
          "name": "",
          "type": "uint256"
        }
      ],
      "payable": false,
      "stateMutability": "view",
      "type": "function"
    },
    {
      "constant": true,
      "inputs": [],
      "name": "_gamer",
      "outputs": [
        {
          "internalType": "address payable",
          "name": "",
          "type": "address"
        }
      ],
      "payable": false,
      "stateMutability": "view",
      "type": "function"
    },
    {
      "constant": true,
      "inputs": [],
      "name": "_owner",
      "outputs": [
        {
          "internalType": "address payable",
          "name": "",
          "type": "address"
        }
      ],
      "payable": false,
      "stateMutability": "view",
      "type": "function"
    },
    {
      "constant": true,
      "inputs": [
        {
          "internalType": "address",
          "name": "",
          "type": "address"
        }
      ],
      "name": "contractBalance",
      "outputs": [
        {
          "internalType": "uint256",
          "name": "",
          "type": "uint256"
        }
      ],
      "payable": false,
      "stateMutability": "view",
      "type": "function"
    },
    {
      "constant": true,
      "inputs": [],
      "name": "coinFlip",
      "outputs": [
        {
          "internalType": "uint256",
          "name": "",
          "type": "uint256"
        }
      ],
      "payable": false,
      "stateMutability": "view",
      "type": "function"
    },
    {
      "constant": false,
      "inputs": [
        {
          "internalType": "uint256",
          "name": "headTails",
          "type": "uint256"
        }
      ],
      "name": "createBet",
      "outputs": [],
      "payable": true,
      "stateMutability": "payable",
      "type": "function"
    },
    {
      "constant": true,
      "inputs": [],
      "name": "getBalance",
      "outputs": [
        {
          "internalType": "uint256",
          "name": "",
          "type": "uint256"
        }
      ],
      "payable": false,
      "stateMutability": "view",
      "type": "function"
    }
  ],
  "bytecode": "0x6080604052674563918244f4000080341015610083576040517f08c379a000000000000000000000000000000000000000000000000000000000815260040180806020018281038252601f8152602001807f496e73756666696369656e742062616c616e63652e20426574204d6f7265210081525060200191505060405180910390fd5b336000806101000a81548173ffffffffffffffffffffffffffffffffffffffff021916908373ffffffffffffffffffffffffffffffffffffffff16021790555034600460008060009054906101000a900473ffffffffffffffffffffffffffffffffffffffff1673ffffffffffffffffffffffffffffffffffffffff1673ffffffffffffffffffffffffffffffffffffffff1681526020019081526020016000208190555050610537806101386000396000f3fe6080604052600436106100705760003560e01c8063a3e974a51161004e578063a3e974a5146100f6578063ac793a601461014d578063b2bdfa7b1461017b578063c53b7702146101d257610070565b806312065fe0146100755780635ac947cb146100a05780638fcd6887146100cb575b600080fd5b34801561008157600080fd5b5061008a610237565b6040518082815260200191505060405180910390f35b3480156100ac57600080fd5b506100b561029f565b6040518082815260200191505060405180910390f35b3480156100d757600080fd5b506100e06102b1565b6040518082815260200191505060405180910390f35b34801561010257600080fd5b5061010b6102b7565b604051808273ffffffffffffffffffffffffffffffffffffffff1673ffffffffffffffffffffffffffffffffffffffff16815260200191505060405180910390f35b6101796004803603602081101561016357600080fd5b81019080803590602001909291905050506102dd565b005b34801561018757600080fd5b506101906104c5565b604051808273ffffffffffffffffffffffffffffffffffffffff1673ffffffffffffffffffffffffffffffffffffffff16815260200191505060405180910390f35b3480156101de57600080fd5b50610221600480360360208110156101f557600080fd5b81019080803573ffffffffffffffffffffffffffffffffffffffff1690602001909291905050506104ea565b6040518082815260200191505060405180910390f35b6000600460008060009054906101000a900473ffffffffffffffffffffffffffffffffffffffff1673ffffffffffffffffffffffffffffffffffffffff1673ffffffffffffffffffffffffffffffffffffffff16815260200190815260200160002054905090565b6000600242816102ab57fe5b06905090565b60035481565b600160009054906101000a900473ffffffffffffffffffffffffffffffffffffffff1681565b670de0b6b3a76400008034101561035c576040517f08c379a000000000000000000000000000000000000000000000000000000000815260040180806020018281038252601f8152602001807f496e73756666696369656e742062616c616e63652e20426574204d6f7265210081525060200191505060405180910390fd5b600160009054906101000a900473ffffffffffffffffffffffffffffffffffffffff1673ffffffffffffffffffffffffffffffffffffffff163373ffffffffffffffffffffffffffffffffffffffff161461041f576040517f08c379a00000000000000000000000000000000000000000000000000000000081526004018080602001828103825260168152602001807f4f6e6c792067616d65722063616e20646f20746869730000000000000000000081525060200191505060405180910390fd5b600061042961029f565b9050346003819055508083141561047b577fc88d38dcc67e69fe7b29bf0b0eebc4022a69907c737cea7d5c618b940dbfbcbf6001604051808215151515815260200191505060405180910390a16104c0565b8083146104bf577fc88d38dcc67e69fe7b29bf0b0eebc4022a69907c737cea7d5c618b940dbfbcbf6001604051808215151515815260200191505060405180910390a15b5b505050565b6000809054906101000a900473ffffffffffffffffffffffffffffffffffffffff1681565b6004602052806000526040600020600091509050548156fea265627a7a72315820e8b56600852799e2768986bcbf7266bea89328d21f18c5e6ea6b46444b4581c264736f6c634300050c0032",
  "source": "pragma solidity 0.5.12;\n\ncontract Coinflip {\n  address payable public _owner;\n  address payable public _gamer;\n  uint private _balance;\n  uint public _amountBet;\n  event winResult(bool wL);\n\n  modifier onlyOwner() {\n    require(msg.sender == _owner, \"Only Owner can do this\");\n    _;\n  }\n\n  modifier onlyGamer() {\n    require(msg.sender == _gamer, \"Only gamer can do this\");\n    _;\n  }\n\n  modifier minimum(uint cost) {\n    require(msg.value >= cost, \"Insufficient balance. Bet More!\");\n    _;\n  }\n\n  mapping (address => uint256) public contractBalance;\n\n  constructor() public payable minimum(5 ether) {\n    _owner = msg.sender;\n    contractBalance[_owner] = msg.value;\n  }\n\n  function coinFlip() public view returns(uint) {\n    return (now % 2);\n  }\n\n  function createBet(uint headTails) public payable minimum(1 ether) onlyGamer {\n    uint outcome = coinFlip();\n    _amountBet = msg.value;\n    // win bet, get double the amount\n    if(headTails == outcome){\n      emit winResult(true);\n    }\n    // lose,\n    else if (headTails != outcome) {\n      emit winResult(true);\n    }\n  }\n\n  function getBalance() public view returns (uint) {\n    return contractBalance[_owner];\n  }\n\n  // function withdrawAll() public onlyOwner returns (uint) {\n  //\n  // }\n}\n",
  "sourcePath": "/home/rivermoon/Desktop/solidity-advanced/dapp-dice-game/contracts/Coinflip.sol",
  "compiler": {
    "name": "solc",
    "version": "0.5.12+commit.7709ece9.Emscripten.clang"
  },
  "schemaVersion": "3.0.23",
  "updatedAt": "2020-10-29T05:14:23.013Z",
  "devdoc": {
    "methods": {}
  },
  "userdoc": {
    "methods": {}
  }
}